:100000000C9482530C94B3530C94B3530C94B35389
:100010000C94B3530C94B3530C94B3530C94B35348
:100020000C94B3530C94B3530C94B3530C94B35338
:100030000C94B3530C9470AA0C94B3530C94B35314
:100040000C94B3530C94B3530C94B3530C94B35318
:100050000C94B3530C94B3530C94B3530C940BB350
:100060000C94B3530C9481B60C94B7B60C94B35360
:100070000C94B3530C94B3530C94B3530C94B353E8
:100080000C94B3530C94B3530C94B3530C94B353D8
:100090000C94B3530C94B3530C94B3530C94D8AC4A
:1000A0000C94B3530C94B3530C94B3530C94B353B8
:1000B0000C94B3530C94B3530C94B3530C94B353A8
:1000C0000C94B3530C94B3530C94B3530C94B35398
:1000D0000C94B3530C94B3530C94B3530C94B35388
:1000E0000C94B35362818081A781BD81BD81BD81A4
:1000F000D4815C8262815C82F7815C8205820582A8
:1001000022822282A78188828882A78105825C82DE
:10011000BD8130825C825C825C825C825C824A82CD
:100120005C825C82F58256843F850E86198719872A
:10013000AB88FF89A48F0C8BFD8C698D32910B925B
:10014000E793E7933F85DA9CDA9C3F85DE92E8945B
:100150002D88B1957C968298A9973B99829ADC9BD1
:10016000F09BA48B41B444B433B437B43DB47BB4F6
:1001700048B44CB452B456B45AB460B464B468B41D
:100180007BB46EB472B476B405A84CCDB2D44EB97B
:100190003836A9020C50B9918688083CA6AAAA2A2A
:1001A000BE000000803F1820205F0000000000001B
:1001B000000000000000000000000000000000003F
:1001C000000000000000000000000000000000002F
:1001D000000000000000000000000000000000001F
:1001E000000000000000000000000000000000000F
:1001F00000000000000000000000000000000000FF
:1002000000000000000000000000001800003C009A
:10021000003C00003C00003C00003C00003C0000B2
:100220001C00001C00001800001800001800001836
:100230000000180000180000180000180000180046
:10024000000000000000000000001800003C00005A
:100250003C00003C00000000000000000000000026
:100260000000000000000000000000C08001E1E08C
:1002700001E1E001F1E000E0E00060E000E0C0004A
:10028000C1C00181800303000000000000000000E5
:10029000000000000000000000000000000000005E
:1002A000000000000000000000000000000000004E
:1002B000000000000000000000000000000000003E
:1002C0000000000000000000000000000000E180CD
:1002D00000E18000C18000C38000C38000C3000F24
:1002E000FFF01FFFF001C30001C30001830001877D
:1002F000000187000186001FFFE01FFFE00186006C
:10030000038600030600030600030E00030E00032D
:100310000C000000000000000000000000000000D1
:1003200000000000000000000000000000001800B5
:1003300000180000FE0001FF80039BE00718C007C3
:10034000188007180007180003980003F80000FC45
:1003500000007F00001FC00019C00018E0001860F6
:100360000018600418600618E00F19C003FF800130
:10037000FF00001800001800001800000000000036
:100380000000000000000000000000000001C000AC
:1003900007E0700770600E30E00C30C00C31800E4A
:1003A000338006730007E70003C600000E00000C50
:1003B00000001C000018000030000071E00063F035
:1003C00000E63800C61801C61801861803863803EF
:1003D00003F00601E0000000000000000000000043
:1003E0000000000000000000000000200001FC00F0
:1003F00003FE00038E000306000707000306000348
:100400008600038E0001DC0000F80000F00003F01D
:100410000007B840071C600E1C700E0EE00C07C0F1
:100420001C03C00C03800E07C00F1EE007FCF00386
:10043000F860000000000000000000000000000064
:1004400000000000000000000000001800003C0058
:10045000003C00003C00001C00000C0000180000E4
:1004600018000030000060000000000000000000E4
:10047000000000000000000000000000000000007C
:10048000000000000000000000000000000000006C
:10049000000000000000000000000000000000005C
:1004A0000000000000000000000000010000070044
:1004B000000F80001C000038000070000070000079
:1004C000E00000C00001C00001C000018000018008
:1004D000000380000380000380000380000380008D
:1004E00001800001800001C00001C00000E00000A8
:1004F000E000007000007800003800001C00000FD1
:100500000000078000030000000000800000E00001
:1005100000F000007800001C00000E000007000042
:1005200007000003800003800001C00001C000003C
:10053000C00000C00000C00000E00000E00000C0FB
:100540000000C00001C00001C00001800003800065
:100550000380000700000E00001E00003C00007831
:100560000000F00000C0000080000000000000005B
:10057000000000000000000000000000001C00005F
:100580001C00001C00041C1007187007C9F001FFB4
:10059000C0003C00003C0000760000630000E380E7
:1005A00001C1C00381C00080800000000000000085
:1005B000000000000000000000000000000000003B
:1005C000000000000000000000000000000000002B
:1005D000000000000000000000001C00001C0000E3
:1005E0001C00001C00001C00001C00001C0007FF79
:1005F000F007FFF0001C00001C00001C00001C00A5
:10060000001C00001C00001C000000000000000096
:1006100000000000000000000000000000000000DA
:1006200000000000000000000000000000000000CA
:1006300000000000000000000000000000000000BA
:1006400000000000000000000000000000000000AA
:10065000000000000000000000000000000000009A
:10066000000000000600000F00000F00000F000057
:100670000700000300000600000600000C00001840
:10068000000000000000000000000000000000006A
:10069000000000000000000000000000000000005A
:1006A000000000000000000000000000000003FF48
:1006B000E003FFE000000000000000000000000078
:1006C000000000000000000000000000000000002A
:1006D000000000000000000000000000000000001A
:1006E000000000000000000000000000000000000A
:1006F00000000000000000000000000000000000FA
:1007000000000000000000000000000000000000E9
:1007100000000000000000000000000000000000D9
:10072000000000000000000C00001E00001E000081
:100730001E0000000000000000000000000000009B
:10074000000000000000000000000000400000E089
:100750000000E00000C00001C00001800003800034
:100760000300000700000700000E00000E00001C40
:1007700000001C000038000038000030000070004D
:1007800000600000E00000C00001C0000180000324
:10079000800003800007000001000000000000004E
:1007A0000000000000000000000000100000FC003D
:1007B00001FE0003C7000383800701800601C00615
:1007C00003C00E07C00E0EC00E1CE00C18E00C3863
:1007D000E00E70E00EE0E00EC0C00FC0C00780C0A9
:1007E0000701C007018003838003C70000FE0000EB
:1007F0007C0000000000000000000000000000007D
:1008000000000000000000000000000000000E00DA
:10081000003E0001FE0000C60000060000060000C9
:1008200006000006000006000006000006000006A4
:10083000000006000006000006000006000006009A
:10084000000600000600000600000600000600008A
:100850000600000000000000000000000000000092
:100860000000000000000000000000100000FE007A
:1008700001FF000387800701C00201C00001C00022
:1008800000C00001C00001C0000380000380000719
:1008900000000E00001C0000380000700000E000A6
:1008A00001C00003800003800007002007FFC0078D
:1008B000FFC0000000000000000000000000000079
:1008C0000000000000000000000000000000FC002C
:1008D00003FF000707000203800001800001800081
:1008E0000180000380000700001E00007C00007FE4
:1008F000000007800003800001C00001C00001C0AB
:100900000001C00201C002038007878003FF0001CD
:10091000FC000000000000000000000000000000DB
:1009200000000000000000000000000000000700C0
:10093000000F00000F00001F00003F000037000004
:10094000670000670000C70001C7000187000307B8
:10095000000707000607000FFFE00FFFE00FFFE0B2
:100960000007000007000007000007000007000064
:100970000700000000000000000000000000000070
:100980000000000000000000000000000003FFC0A5
:1009900003FFC00300000300000300000300000386
:1009A000000007000007FE0007FF0007878007011F
:1009B000C00001C00000C00000E00000E00000E056
:1009C0000000C00201C00E01C007878003FF0001C4
:1009D000FE00000000000000000000000000000019
:1009E00000000000000000000000000800007F0080
:1009F00000FFC001C18003808003000007000007E2
:100A00000000060000063E0006FF0007C7800781C1
:100A1000800701C00600C00600C00600C00600C076
:100A20000700C00301C00381C001C38000FF0000B4
:100A30007E00000000000000000000000000000038
:100A40000000000000000000000000000007FFC0E0
:100A500007FFC00001C00003800003800003000006
:100A60000700000700000E00000E00000C00001C34
:100A700000001C0000380000380000380000700042
:100A800000700000700000E00000E00000E00001E5
:100A9000C000000000000000000000000000000096
:100AA0000000000000000000000000180000FE0030
:100AB00001FF000383800301800701C00701C00319
:100AC00001C003838001C70000FE00007C0001FF1D
:100AD0000003C7800703800701C00600C00E00E0C6
:100AE0000E00C00600C00701C007838003FF80001E
:100AF000FE000000000000000000000000000000F8
:100B00000000000000000000000000100000FE00D7
:100B100001FF000387800703800701C00601C006AC
:100B200000C00600C00600C00700C00701C0038364
:100B3000C003FEC000FCC00020C00001C00001C016
:100B40000001C0000380020380030F0007FE0001C4
:100B5000F80000000000000000000000000000009D
:100B60000000000000000000000000000000000085
:100B7000000000001800003C00003C00003C0000A9
:100B80000000000000000000000000000000000065
:100B900000000000000000001800003C00003C00C5
:100BA000003C000000000000000000000000000009
:100BB0000000000000000000000000000000000035
:100BC0000000000000000000000000000000000025
:100BD000000000000C00001E00001E00001E0000AF
:100BE0000000000000000000000000000000000005
:100BF00000000000000000000C00001E00001E00AD
:100C0000001E00000E00000600000C00000C00009A
:100C1000180000300000000000000000000000008C
:100C200000000000000000000000000000000000C4
:100C30000000000000000000200000E00003E000D1
:100C40000F80003E0000F80003E0000F80001E004F
:100C5000001E00000F800003E00000F000007C0098
:100C6000001F000007C00001E00000E000002000BD
:100C70000000000000000000000000000000000074
:100C80000000000000000000000000000000000064
:100C9000000000000000000000000000000000074D
:100CA000FFF007FFF000000000000000000000005F
:100CB0000000000007FFF007FFF007FFF000000052
:100CC0000000000000000000000000000000000024
:100CD0000000000000000000000000000000000014
:100CE0000000000000000000000000000000000004
:100CF0000000000000000800000E00000F8000034C
:100D0000E00000F800003E00000F000003C00000FB
:100D1000E00000E00003C0000F80003E000078000B
:100D200001F00007C0001F00001C000018000000B8
:100D300000000000000000000000000000000000B3
:100D400000000000000000000000000000003E0065
:100D500000FF8001FFC00781C00300E00100E00048
:100D600000E00000E00000E00001E00003C0000738
:100D700080000700000E00000C00000C00001C00AA
:100D8000001C00000000000000000000000C00003B
:100D90001E00001E00001E000000000000000000F9
:100DA00000000000000000000000000000001C0027
:100DB00000FF0001E7800381C00700E00600600E2D
:100DC00000600C03E00C1FE01C3C601C70601860AD
:100DD000601860601C60601C70E01C79E00C3FE0F3
:100DE0000C0E000E000007000003800003C0C000CE
:100DF000FFC0007F80000000000000000000000035
:100E00000000000000000000000000200000300092
:100E1000003000003000007800007800007800000A
:100E2000FC0000CC0000CE00018600018600018796
:100E30000003030003038003FF8007FF800601C057
:100E40000E01C00E00C00C00E01C00E01C00701879
:100E50000070000000000000000000000000000022
:100E6000000000000000000000000000000FFE0075
:100E70000FFF000C07800C01C00C01C00C00C00C5F
:100E800001C00C01C00C03800FFF000FFE000FFF1C
:100E9000800C03C00C01C00C00E00C00E00C00E072
:100EA0000C00E00C00E00C01C00C07C00FFF800F2D
:100EB000FC00000000000000000000000000000036
:100EC00000000000000000000000000800007F009B
:100ED00001FFC003C1E00780E00700700E00000EB4
:100EE00000000E00000C00000C00000C00000C00C4
:100EF000000C00000C00000C00000E00000E0000B2
:100F00000700000700400380E003C1C000FF80002D
:100F10007F00000000000000000000000000000052
:100F2000000000000000000000000000000FFC00B6
:100F30000FFF000C0F800C03800C01C00C01C00CD3
:100F400000E00C00E00C00E00C00E00C00E00C0005
:100F5000600C00600C00E00C00E00C00E00C00C035
:100F60000C01C00C01C00C03800C0F000FFE000F21
:100F7000F800000000000000000000000000000079
:100F8000000000000000000000000000000FFFE073
:100F90000FFFE00E00000E00000E00000E00000E1D
:100FA00000000E00000E00000E00000FFF000FFFFB
:100FB000000E00000E00000E00000E00000E0000EB
:100FC0000E00000E00000E00000E00000FFFC00F0C
:100FD000FFC0000000000000000000000000000052
:100FE0000000000000000000000000000007FFC03B
:100FF00007FFC00700000700000700000700000708
:10100000000007000007000007FF0007FF0007FFC0
:1010100000070000070000070000070000070000AD
:101020000700000700000700000700000700000796
:1010300000000000000000000000000000000000B0
:1010400000000000000000000000000400007F809D
:1010500000FFC001E0E0038070038020070000076C
:1010600000000600000600000600000E00000E0052
:10107000000E03F00E03F0060030060030070030CB
:1010800007003003803003C03001E0F000FFE000D3
:101090003F80000000000000000000000000000091
:1010A000000000000000000000000000000E00E052
:1010B0000E00E00E00E00E00E00E00E00E00E00E7C
:1010C00000E00E00E00E00E00E00E00FFFE00FFF7A
:1010D000E00E00E00E00E00E00E00E00E00E00E08A
:1010E0000E00E00E00E00E00E00E00E00E00E00E4C
:1010F00000E0000000000000000000000000000010
:101100000000000000000000000000000007FF8059
:1011100007FF800030000030000030000030000089
:10112000300000300000300000300000300000309F
:1011300000003000003000003000003000003000BF
:1011400000300000300000300000300007FF800752
:10115000FF80000000000000000000000000000010
:101160000000000000000000000000000000FFE0A0
:1011700000FFE00007000007000007000007000074
:101180000700000700000700000700000700000735
:10119000000007000007000007000007000006002D
:1011A000000600000E00040E000F1C0007F80003EC
:1011B000F800000000000000000000000000000037
:1011C000000000000000000000000200A00C01C0B0
:1011D0000C03800C07800C07000C0E000C1C000C8C
:1011E00038000C70000CE0000DC0000FE0000FE0B4
:1011F000000E70000C38000C3C000C1C000C0E00A3
:101200000C0F000C07000C03800C01C00C01E00C5B
:1012100000F00000000000000000000000000000DE
:1012200000000000000000000000000000070000B7
:101230000700000700000700000700000700000784
:10124000000007000007000007000007000007007B
:10125000000700000700000700000700000700006B
:1012600007000007000007000007000007FFE00775
:10127000FFE000000000000000000000000000008F
:10128000000000000000000000000000000C0060F2
:101290000E00E00E00E00F01E00F01E00F83E00F11
:1012A00083600DC7600CC6600CEE600C6C600C783F
:1012B000600C38600C30600C10600C00600C00603A
:1012C0000C00600C00600C00600C00600C00600CF6
:1012D00000600000000000000000000000000000AE
:1012E000000000000000000000000000000E00E010
:1012F0000E00E00F00E00F80E00F80E00DC0E00D79
:10130000C0E00CE0E00C60E00C70E00C38E00C3861
:10131000E00C1CE00C1CE00C0EE00C0EE00C07E0F6
:101320000C03E00C03E00C01E00C01E00C00E00C0D
:1013300000E00000000000000000000000000000CD
:101340000000000000000000000000000000FE009F
:1013500001FF800383800701C00E00C00E00E00C77
:1013600000E01C00601C00601C00701C00701C0071
:10137000701C00701C00701C00600C00600E00E00F
:101380000E00E00701C00781C003C78001FF000015
:10139000FE0000000000000000000000000000004F
:1013A000000000000000000000000000000FFF002F
:1013B0000FFF800E03C00E01C00E00E00E00E00E15
:1013C00000E00E00E00E00E00E01C00FFF800FFFF6
:1013D000000FFC000E00000E00000E00000E0000CA
:1013E0000E00000E00000E00000E00000E00000EA9
:1013F00000000000000000000000000000000000ED
:1014000000000000000000000000000800007F0055
:1014100000FFC001C1C00380E00700600700700644
:1014200000700E00300E00300E00380E00380E0036
:10143000380E00380E00380E00300600300700303D
:101440000700700300600380E001E3C000FF80003C
:101450007E00001C00000C00000E00000FF00007D2
:10146000F00000000000000000000000000FFF007E
:101470000FFF800E03C00E01C00E00E00E00E00E54
:1014800000E00E00E00E01C00E03C00FFF800FFF52
:10149000000FFC000E0C000E0E000E07000E0700E1
:1014A0000E03800E03800E01C00E01C00E00E00E80
:1014B00000E000000000000000000000000000004C
:1014C00000000000000000000000000000007F801D
:1014D00000FFC001C0E00380600380400380000380
:1014E000800003800001E00000F800007E00001F83
:1014F000800007C00001E00000F0000070000070F4
:101500000000700200700700E007C1E001FFC000AA
:10151000FF000000000000000000000000000000CC
:10152000000000000000000000000000000FFFF0BD
:101530000FFFF0001800001800001800001800004D
:10154000180000180000180000180000180000180B
:101550000000180000180000180000180000180013
:101560000018000018000018000018000018000003
:101570001800000000000000000000000000000053
:10158000000000000000000000000000000E0060ED
:101590000C00600C00600C00600C00600C00600C23
:1015A00000600C00600C00600C00600C00600C001F
:1015B000600C00600C00600C00600C00600E00E02D
:1015C0000E00E00E00E00701C00783C003FF8000AB
:1015D000FE0000000000000000000000000000000D
:1015E000000000000000000000000000001C00706F
:1015F0000C00600E00E00E00E00600C00701C0070E
:1016000001C003018003818003838001830001C343
:101610000001C70000C60000E60000EE00006C00FC
:10162000007C00007C00003800003800003800001A
:10163000100000000000000000000000000000009A
:101640000000000000000000000000000018003052
:101650001810301C10301C18301C18700C38600C1E
:101660003C600C3C600C6C600E6C600E6E6006663C
:10167000C006C6C006C6C006C7C00783C00783C071
:1016800007838003838003018003018003018003BB
:1016900001800000000000000000000000000000C9
:1016A000000000000000000000000000200E00C04C
:1016B0000701C007018003838003830001C7000185
:1016C000CE0000EE00007C00007C000038000038F6
:1016D00000007C00007C0000EE0000CE0001C7008E
:1016E0000383800383800701C00701C00E00E00E62
:1016F00000F00000000000000000000000000000FA
:10170000000000000000000000000000080F003092
:101710000700700380600380E001C0C001C1C00009
:10172000E1C000E380007380007700003F00003ECE
:1017300000001E00001C00001C00001C00001C001B
:10174000001C00001C00001C00001C00001C00000D
:101750001C0000000000000000000000000000006D
:10176000000000000000000000000000000FFFE08B
:101770000FFFE00001C00001C00003800003000073
:101780000700000E00000E00001C000038000038AA
:101790000000700000700000E00001C00001C00007
:1017A0000380000380000700000E00100FFFE00F11
:1017B000FFE000000000000000000000000000004A
:1017C0000000000000000000000000000003FF8097
:1017D00003FF800300000300000300000300000378
:1017E00000000300000300000300000300000300EA
:1017F00000030000030000030000030000030000DA
:1018000003000003000003000003000003000003C6
:10181000000003000003000003000003FF8003FF3B
:101820008000000000000000000000800003800035
:1018300001C00001C00000E00000E00000700000F6
:101840007000003800003800001800001C00000C78
:1018500000000E00000600000700000700000380E3
:101860000003800001C00001C00000E00000E000B3
:101870000060000070000030000020000000000048
:101880000000000000000000000000000001FFC098
:1018900001FFC00001C00001C00001C00001C00084
:1018A00001C00001C00001C00001C00001C0000172
:1018B000C00001C00001C00001C00001C00001C0A3
:1018C0000001C00001C00001C00001C00001C00053
:1018D00001C00001C00001C00001C001FFC001FF44
:1018E000C000000000000000000000000000080030
:1018F000001C00001E00003E000077000063000096
:10190000E38000C1800181C00380800000000000EE
:1019100000000000000000000000000000000000C7
:1019200000000000000000000000000000000000B7
:1019300000000000000000000000000000000000A7
:101940000000000000000000000000000000000097
:101950000000000000000000000000000000000087
:101960000000000000000000000000000000000077
:101970000000000000000000000000000000000067
:101980000000000000000000000000000000000057
:1019900000000FFFF00FFFF000000000000000004B
:1019A00000000000000000000000000000003C00FB
:1019B00000FE0001C70001830001838001838001D4
:1019C000830001C70000FE00007C00000000000052
:1019D0000000000000000000000000000000000007
:1019E00000000000000000000000000000000000F7
:1019F00000000000000000000000000000000000E7
:101A000000000000000000000000000000000000D6
:101A100000000000000000000000000000000000C6
:101A20000800007F0003FFC00181E00100E000002A
:101A300060000060000060003FE001FFE003C06064
:101A40000700600700600700E00701E00783E0038C
:101A5000FF6001FC600000000000000000000000CA
:101A6000000000000000000000000000000700006F
:101A7000070000070000070000070000070000073C
:101A80000400073F00077FC007C1C00780E00700D0
:101A9000F007007007007007007007007007007003
:101AA0000700700700700780E00780E007C3C007E9
:101AB0007F80063F000000000000000000000000E2
:101AC0000000000000000000000000000000000016
:101AD0000000000000000000000000000000000006
:101AE000000000FF0003FF800783C00700800E0096
:101AF000800C00001C00001C00001C00001C0000EA
:101B00001C00000E00000E000007018007C3C00388
:101B1000FF8000FE00000000000000000000000048
:101B2000000000000000000000000000000000C0F5
:101B30000000C00000C00000C00000C00000C000E5
:101B400020C001FCC003FEC00783C00701C00E0116
:101B5000C00E01C00E00C00C00C00C00C00E00C0C2
:101B60000E01C00E01C00E01C00703C00787C003ED
:101B7000FEC000FCE00000000000000000000000CB
:101B80000000000000000000000000000000000055
:101B90000000000000000000000000000000000045
:101BA000100000FE0001FF000383800701C0060053
:101BB000C00E00C00E00E00FFFE00FFFE00E0000BF
:101BC0000E00000E000006000007008003C1C001E7
:101BD000FF8000FF00000000000000000000000087
:101BE00000000000000000000000000000000FC026
:101BF000003FE000787000702000E02000E000006E
:101C0000E00000E00000E0000FFF000FFF0000E038
:101C10000000E00000E00000E00000E00000E00064
:101C200000E00000E00000E00000E00000E0000054
:101C3000E00000E0000000000000000000000000E4
:101C40000000000000000000000000000000000094
:101C50000000000000000000000000000000000084
:101C6000000000302001FCF003DFF007070006034E
:101C7000000E03800E0380060300070700078F0095
:101C800003FE0003F800070000060000070000073D
:101C9000FF0003FFC00601E00C00E00C00601C0028
:101CA000E00E01C00FFF8003FF00000000070000EE
:101CB0000600000600000600000600000600000600
:101CC0000000060400063F00067F8006C3C00781AF
:101CD000C00701C00700C00600C00600C00600C063
:101CE0000600C00600C00600C00600C00600C00610
:101CF00000C00600C000000000000000000000005E
:101D0000000000000000000000000010000038008B
:101D10000038000038000000000000000000000053
:101D2000000003F80003F800003800003800003815
:101D3000000038000038000038000038000038008B
:101D40000038000038000038000038000038000378
:101D5000FF8003FF80000000000000000000000082
:101D600000000000000000000000000000000080F3
:101D70000001C00001C00001C00000000000000020
:101D80000000000000007FC0007FC00001C0000113
:101D9000C00001C00001C00001C00001C00001C0BE
:101DA0000001C00001C00001C00001C00001C0006E
:101DB00001C00001C00001C00001C0010380038711
:101DC0008003FF0000FE000010000000000F000074
:101DD0000E00000E00000E00000E00000E00000EAF
:101DE00000000E00000E01E00E03800E07000E0E34
:101DF000000E1C000E38000E70000FF0000FB8002F
:101E00000F3C000E1E000E0E000E07000E03800E8B
:101E100003C00E01E0000000000000000000000010
:101E20000000000000000000000000000007F800B3
:101E300007F80000380000380000380000380000C3
:101E40003800003800003800003800003800003842
:101E5000000038000038000038000038000038006A
:101E60000038000038000038000038000038000F4B
:101E7000FFC00FFFC00000000000000000000000D5
:101E80000000000000000000000000000000000052
:101E90000000000000000000000000000000000042
:101EA00020400EF9F00FFB700F1E300E1C380E1C78
:101EB000380E1C380E1C380E1C380E1C380E1C3800
:101EC0000E1C380E1C380E1C380E1C380E1C380E1A
:101ED0001C380E1C3800000000000000000000004C
:101EE00000000000000000000000000000000000F2
:101EF00000000000000000000000000000000000E2
:101F00000400031F80033FC00361E003C0E00380BF
:101F1000E00380E0030060030060030060030060F2
:101F200003006003006003006003006003006003BF
:101F300000600300600000000000000000000000DE
:101F40000000000000000000000000000000000091
:101F50000000000000000000000000000000000081
:101F6000100000FE0001FF000383800701C00E0186
:101F7000E00E00E00E00E00C00E00C00600E00E05F
:101F80000E00E00E00E00F00E00701C003838001B7
:101F9000FF0000FE00000000000000000000000044
:101FA0000000000000000000000000000000000031
:101FB0000000000000000000000000000000000021
:101FC00008000E7F000EFF800F83C00F01C00E00BF
:101FD000E00E00E00E00E00E00E00E00600E00E0FB
:101FE0000E00E00E00E00E00E00F01C00F83800E37
:101FF000FF800E7E000E00000E00000E00000E009E
:10200000000E00000E0000000000000000000000B4
:1020100000000000000000000000000000000000C0
:102020000800007E7001FF7003C1F00380F007001C
:10203000F00700700700700600700600700700705F
:102040000700700700F00700F00381F003C3F00100
:10205000FF70007E700000700000700000700000D3
:102060007000007000007000000000000000000020
:102070000000000000000000000000000000000060
:102080000400073F80067FC006E0C007C0800780CD
:10209000000700000700000700000600000600001F
:1020A000060000060000060000060000060000060C
:1020B000000006000000000000000000000000001A
:1020C0000000000000000000000000000000000010
:1020D0000000000000000000000000000000000000
:1020E000100000FF0001FF800381C007008007008F
:1020F0008003800003E00001FC00007F00000FC0AF
:102100000003C00001C00400C00601C00F83C0036B
:10211000FF8001FE00000000000000000000000041
:1021200000000000000000000000000000000000AF
:1021300000000000700000700000700000600000EF
:10214000600007FF8007FF80006000006000006003
:102150000000E00000E00000E00000E00000E0001F
:1021600000E00000E00000E0000070400078C000E7
:102170007FE0003F80000000000000000000000041
:10218000000000000000000000000000000000004F
:10219000000000000000000000000000000000003F
:1021A00000000E00C00E00C00E00C00E00C00E00E9
:1021B000C00E00C00E00C00E00C00E00C00E00C059
:1021C0000E00C00E01C00701C00703C00787C0038F
:1021D000FCC001F8E000000000000000000000006A
:1021E00000000000000000000000000000000000EF
:1021F00000000000000000000000000000000008D7
:102200000000070030070070030060038060038057
:10221000E001C0C001C0C001C1C000E18000E38096
:10222000006300007700007600003E00003E0000E2
:102230001C00003C00000000000000000000000046
:10224000000000000000000000000000000000008E
:10225000000000000000000000000000000000007E
:1022600000001800301810301838701C38600C3816
:10227000600C3C600C6C600C6C600E6C6006664020
:1022800006C6C006C6C007C7C00783C00383C00315
:102290008380038180000000000000000000000037
:1022A000000000000000000000000000000000002E
:1022B000000000000000000000000000000000001E
:1022C00000000700E00381C001C1C001C38000E736
:1022D00000007700003E00003C00001C00003E00B3
:1022E000007E0000770000E38001C1C00181C003CF
:1022F00080E0070070000000000000000000000007
:1023000000000000000000000000000000000000CD
:1023100000000000000000000000000000000000BD
:1023200000000E00E00E00E00700C00700C003013F
:10233000C003818003818001C38001C30000C70006
:1023400000E70000E600007E00007C00003C00008A
:102350003C000038000038000030000070000860C9
:10236000001FE0000FC0000200000000000000009D
:10237000000000000000000000000000000000005D
:10238000000007FFC007FFC00003800007800007B0
:1023900000000E00001C00003800007800007000F3
:1023A00000E00001C0000380000780000F00200F44
:1023B000FFE00FFFE0000000000000000000000050
:1023C000000000000000000000000000000007C046
:1023D000001FC0003C0000300000700000700000D2
:1023E000700000700000700000700000700000605D
:1023F0000000E00007C00007800003C00000E0000C
:1024000000600000700000700000700000700000AC
:102410007000007000007000007000007800003C48
:1024200000001FC00007C0000000000000001C00EA
:10243000001C00001C00001C00001C00001C000010
:102440001C00001C00001C00001C00001C00001CE4
:1024500000001C00001C00001C00001C00001C00F0
:10246000001C00001C00001C00001C00001C0000E0
:102470001C00001C00001C00001C00001C00001CB4
:1024800000001C00001C0000000000000001F8001B
:1024900001FE00000F0000070000030000038000A1
:1024A000038000038000038000038000038000039A
:1024B000800001C00000F80000780000E00001800A
:1024C000000380000380000380000380000380007D
:1024D0000380000380000380000380000700000FDA
:1024E0000001FE0001F800000000000000000000F4
:1024F00000000000000000000000000000000000DC
:1025000000000000000000000000000000000000CB
:102510000003E02007F8700E3FE00C0FC00007003A
:1025200000000000000000000000000000000000AB
:10253000000000000000000000000000000000009B
:10254000000000000000000000002032205F0000BA
:10255000000000000000000000000000000000007B
:10256000000000000000000000000000000000006B
:10257000000000000000000000000000000000005B
:10258000000000000000000000000000000000004B
:10259000000000000000000000000000000000003B
:1025A000000000000000000000000000000000002B
:1025B000000000000000000000000000000000001B
:1025C000000000000000000000000000000000000B
:1025D00000000000000000000000000000000000FB
:1025E00000000000000000000000000000000000EB
:1025F00000000000000000000000000000000000DB
:1026000000000000000000000000000000000000CA
:1026100000000000000000000000000000000000BA
:102620000000000000000C0000001E0000003F0041
:1026300000003F0000003F0000003F0000003F009E
:1026400000003F0000003F0000003F0000003F008E
:1026500000003F0000003F0000003F0000003F007E
:1026600000003C00000038000000200000000000D6
:10267000000020000000300000003C0000003F008F
:1026800000003F0000003F0000003F0000003F004E
:1026900000003F0000003F0000003F0000003F003E
:1026A00000003F0000003F0000003F0000003F002E
:1026B00000003F0000001E0000000C0000000000B1
:1026C000000000000000000000000000000000000A
:1026D00000000000000000000000000000000000FA
:1026E000000000000000007FFF0000FFFF8001FFEE
:1026F000FF8000FFFF00007FFE00000000000000E0
:1027000000000000000000000000000000000000C9
:1027100000000000000000000000000000000000B9
:1027200000000000000000000000000000000000A9
:102730000000000000000000000000000000000099
:102740000000000000000000000000000000000089
:102750000000000000000000000000000000000079
:102760000000000000000000000000000000000069
:102770000000000000000000000000000000000059
:102780000000000000000000000000000000000049
:102790000000000000000000000000000000000039
:1027A00000000000000000000000007FFF0000FFAC
:1027B000FF8001FFFF8000FFFF00007FFE000000A0
:1027C0000000000000000000000000000000000009
:1027D00000000000000000000000000000000000F9
:1027E00000000000000000000000000000000000E9
:1027F00000000000000000000000007FFF0001FF5B
:10280000FFC007FFFFF001FFFFE0007FFF80000037
:1028100000000000000000000000000000000000B8
:1028200000000000000000000000000000000000A8
:102830000000000000000000000000000000000098
:102840000000000000000000000000000000007F09
:10285000FF0000FFFF8001FFFFC000FFFF80007F3F
:10286000FF00000000000000000000000000000069
:10287000000000000000003FFF80007FFFC000FF5D
:10288000FFE0007FFFC0033FFF80078000000FC014
:1028900000000FC000000FC000000FC000000FC0FC
:1028A00000000FC000000FC000000FC000000FC0EC
:1028B00000000FC000000FC000000FC000000FC0DC
:1028C00000000F8000000E7FFF8008FFFFE003FF85
:1028D000FFF801FFFFF0007FFFC60000001E0000B0
:1028E000007E0000007E0000007E0000007E0000F0
:1028F000007E0000007E0000007E0000007E0000E0
:10290000007E0000007E0000007E0000007E0000CF
:10291000007E0000007E0000003C003FFF98007F2A
:10292000FFC000FFFFE0007FFFC0003FFF8000000E
:102930000000000000000000000000000000000097
:1029400000000000000000000000060000000F0072
:1029500000001F8000001F8000001F8000001F80FB
:1029600000001F8000001F8000001F8000001F80EB
:1029700000001F8000001F8000001F8000001F80DB
:1029800000001F8000001E0000001C00000010005E
:10299000000000000000000000000000000C00002B
:1029A000003C000000FC000000FC000000FC0000F7
:1029B00000FC000000FC000000FC000000FC000027
:1029C00000FC000000FC000000FC000000FC000017
:1029D00000FC000000FC000000FC0000007800008B
:1029E00000300000000000000000000000000000B7
:1029F00000000000000000000000000000000000D7
:102A00000000007FFF0000FFFF8001FFFF8000FF4C
:102A1000FF00067FFE000F0000001F8000001F80E7
:102A200000001F8000001F8000001F8000001F802A
:102A300000001F8000001F8000001F8000001F801A
:102A400000001F8000001F8000001F8000001F008A
:102A500000001CFFFF0011FFFFC007FFFFF013FF86
:102A6000FFE01CFFFF8C1F00003C1F8000FC1F804C
:102A700000FC1F8000FC1F8000FC1F8000FC1F80EA
:102A800000FC1F8000FC1F8000FC1F8000FC1F80DA
:102A900000FC1F8000FC1F8000FC1F8000FC1F80CA
:102AA00000FC0F000078067FFF3000FFFF8001FF71
:102AB000FFC000FFFF80007FFF000000000000005B
:102AC000000000000000000000000000000000FF07
:102AD000FE0001FFFF0003FFFF0001FFFE0000FFFB
:102AE000FC000000000000000000000000000000EA
:102AF00000000000000000000000000000000000D6
:102B000000000000000000000000000000000000C5
:102B100000000000000000000000000000000000B5
:102B200000000000000000000000000000000000A5
:102B30000000000000000000000000000000000095
:102B40000000000000000000000000000000000085
:102B50000000000000000000000000000000000075
:102B60000000000000000000000000000000000065
:102B70000000000000000000000000000000000055
:102B80000000000000000000000000000000000045
:102B9000000000000000007FFF0000FFFF8001FF39
:102BA000FF8000FFFF00067FFE000F0000001F8077
:102BB00000001F8000001F8000001F8000001F8099
:102BC00000001F8000001F8000001F8000001F8089
:102BD00000001F8000001F8000001F8000001F8079
:102BE00000001E0000001C0000001000000000009B
:102BF000000010000000180000001E0000001F80F0
:102C000000001F8000001F8000001F8000001F8048
:102C100000001F8000001F8000001F8000001F8038
:102C200000001F8000001F8000001F8000001F8028
:102C300000001F8000000F000000067FFF0000FF63
:102C4000FF8001FFFFC000FFFF80007FFF0000004A
:102C50000000000000000000000000000000007FF5
:102C6000FF0000FFFF8001FFFFC000FFFFB0007FFB
:102C7000FF78000000FC000000FC000000FC0000E9
:102C800000FC000000FC000000FC000000FC000054
:102C900000FC000000FC000000FC000000FC000044
:102CA00000FC000000FC000000FC0000003C0000F4
:102CB000000C000000040000000000000000000004
:102CC000000C0000003C000000FC000000FC0000C4
:102CD00000FC000000FC000000FC000000FC000004
:102CE00000FC000000FC000000FC000000FC0000F4
:102CF00000FC000000FC000000FC000000FC0000E4
:102D00000078007FFF3000FFFF8001FFFFC000FF61
:102D1000FF80007FFF0000000000000000000000B6
:102D2000000000000000007FFF0000FFFF8001FFA7
:102D3000FFC000FFFFB0067FFF780F0000FC1F8080
:102D400000FC1F8000FC1F8000FC1F8000FC1F8017
:102D500000FC1F8000FC1F8000FC1F8000FC1F8007
:102D600000FC1F8000FC1F8000FC1F8000FC1F80F7
:102D700000FC1F00003C1CFFFF0C11FFFFC407FFFD
:102D8000FFF013FFFFE01CFFFF8C1F00003C1F80C3
:102D900000FC1F8000FC1F8000FC1F8000FC1F80C7
:102DA00000FC1F8000FC1F8000FC1F8000FC1F80B7
:102DB00000FC1F8000FC1F8000FC1F8000FC1F80A7
:102DC00000FC1F8000FC0F000078067FFF3000FF32
:102DD000FF8001FFFFC000FFFF80007FFF000000B9
:102DE00000000000000000000000000000000000E3
:102DF00000000000000000000000000000000000D3
:102E000000000000000000000000000000000000C2
:102E100000000000000000008000000180000001B0
:102E2000C0000003E0000003E0000003E000000336
:102E3000E0000003E0000003E00000FFFF0001FFEE
:102E4000FFC007FFFFF003FFFFE000FFFF8000036C
:102E5000E0000003E0000003E0000003E0000003E6
:102E6000E0000003C0000001C0000001800000007D
:102E700080000000000000000000000000000000D2
:102E80000000000000000000000000000000000042
:102E90000000000000000000000000000000000032
:102EA0000000000000000000000000000000000022
:102EB0000000000000000000000000000000000012
:102EC0000000000000000000000000000000000002
:102ED00000000000000000000000000000000000F2
:102EE00000000000000000000000000000000000E2
:102EF00000000000000000000000000000000000D2
:102F000000000000000000000000000000000000C1
:102F100000000000000000000000000000000000B1
:102F200000000000000000000000000000000000A1
:102F30000000000000000000000000000000000091
:102F40000000000000000000000000000000000081
:102F50000000000070000000F8000001FC0000010B
:102F6000FC000001FC000000F80000007000000000
:102F70000000000000000000000000000000000051
:102F80000000000000000000000000000000000041
:102F90000000000000000000000000000000000031
:102FA0000000000000000000000000000000000021
:102FB0000000000000000000000000000000000011
:102FC0000000000000000000000000FFFF0001FF03
:102FD000FFC007FFFFF003FFFFE000FFFF800000DE
:102FE00000000000000000000000000000000000E1
:102FF00000000000000000000000000000000000D1
:1030000000000000000000000000000000000000C0
:1030100000000000000000000000000000000000B0
:1030200000000000000000000000000000000000A0
:103030000000000000000000000000000000000090
:103040000000000000000000000000000000000080
:103050000000000000000000000000000000000070
:103060000000000000000000000000000000000060
:103070000000000000000000000000000000000050
:103080000000000000000000000000000000000040
:103090000000000000000000000000000000000030
:1030A0000000000000000000000000000000000020
:1030B0000000000000000000000000000000000010
:1030C0000000000000000000000000000000000000
:1030D00000000000000000000000000000000000F0
:1030E0000000000070000000F8000001FC0000017A
:1030F000FC000001FC000000F8000000700000006F
:1031000000000000000000000000000000000000BF
:103110000000000000000000001000000038000067
:10312000007C000000FC000000FC000000FC00002F
:1031300000FC000000FC000000FC000000FC00009F
:1031400000FC000000FC000000FC000000FC00008F
:1031500000FC000000FC0000003C007FFF0C01FFB1
:10316000FFC407FFFFF013FFFFE01CFFFF801F00FD
:1031700000001F8000001F8000001F8000001F80D3
:1031800000001F8000001F8000001F8000001F80C3
:1031900000001F8000001F8000001F8000001F80B3
:1031A00000001F8000001F8000000F0000000600CC
:1031B000000000000000000000000000000000000F
:1031C00000000000000000000000000000000000FF
:1031D000000000000000007FFF0000FFFF8001FFF3
:1031E000FFC000FFFFB0067FFF780F0000FC1F80CC
:1031F00000FC1F8000FC1F8000FC1F8000FC1F8063
:1032000000FC1F8000FC1F8000FC1F8000FC1F8052
:1032100000FC1F8000FC1F8000FC1F8000FC1F8042
:1032200000FC1F00003C1C00000C1000000400000B
:103230000000100000001C00000C1F00003C1F805C
:1032400000FC1F8000FC1F8000FC1F8000FC1F8012
:1032500000FC1F8000FC1F8000FC1F8000FC1F8002
:1032600000FC1F8000FC1F8000FC1F8000FC1F80F2
:1032700000FC1F8000FC0F000078067FFF3000FF7D
:10328000FF8001FFFFC000FFFF80007FFF00000004
:10329000000000000000000000000000000000002E
:1032A00000000000000000000000000000300000EE
:1032B0000078000000FC000000FC000000FC0000A2
:1032C00000FC000000FC000000FC000000FC00000E
:1032D00000FC000000FC000000FC000000FC0000FE
:1032E00000FC000000FC000000FC0000003C0000AE
:1032F000000C0000000400000000000000000000BE
:10330000000C0000003C000000FC000000FC00007D
:1033100000FC000000FC000000FC000000FC0000BD
:1033200000FC000000FC000000FC000000FC0000AD
:1033300000FC000000FC000000FC000000FC00009D
:1033400000780000003000000000000000000000D5
:10335000000000000000000000000000000000006D
:10336000000000000000007FFF0000FFFF8001FF61
:10337000FFC000FFFFB0007FFF78000000FC0000EE
:1033800000FC000000FC000000FC000000FC00004D
:1033900000FC000000FC000000FC000000FC00003D
:1033A00000FC000000FC000000FC000000FC00002D
:1033B00000FC0000003C00FFFF0C01FFFFC407FF02
:1033C000FFF013FFFFE01CFFFF801F0000001F80C5
:1033D00000001F8000001F8000001F8000001F8071
:1033E00000001F8000001F8000001F8000001F8061
:1033F00000001F8000001F8000001F8000001F8051
:1034000000001F8000000F000000067FFF0000FF8B
:10341000FF8001FFFFC000FFFF80007FFF00000072
:103420000000000000000000000000000000007F1D
:10343000FF0000FFFF8001FFFFC000FFFFB0007F23
:10344000FF78000000FC000000FC000000FC000011
:1034500000FC000000FC000000FC000000FC00007C
:1034600000FC000000FC000000FC000000FC00006C
:1034700000FC000000FC000000FC0000003C00FF1D
:10348000FF0C01FFFFC407FFFFF003FFFFE000FF99
:10349000FF8C0000003C000000FC000000FC00006D
:1034A00000FC000000FC000000FC000000FC00002C
:1034B00000FC000000FC000000FC000000FC00001C
:1034C00000FC000000FC000000FC000000FC00000C
:1034D0000078007FFF3000FFFF8001FFFFC000FF8A
:1034E000FF80007FFF0000000000000000000000DF
:1034F00000000000000000000000000000000000CC
:10350000000000000030060000780F0000FC1F8063
:1035100000FC1F8000FC1F8000FC1F8000FC1F803F
:1035200000FC1F8000FC1F8000FC1F8000FC1F802F
:1035300000FC1F8000FC1F8000FC1F8000FC1F801F
:1035400000FC1F00003C1CFFFF0C11FFFFC407FF25
:10355000FFF003FFFFE000FFFF8C0000003C0000D5
:1035600000FC000000FC000000FC000000FC00006B
:1035700000FC000000FC000000FC000000FC00005B
:1035800000FC000000FC000000FC000000FC00004B
:1035900000FC000000FC000000780000003000008B
:1035A000000000000000000000000000000000001B
:1035B0000000000000000000000000000000007F8C
:1035C000FF0000FFFF8001FFFFC000FFFF80067FBC
:1035D000FF000F0000001F8000001F8000001F8000
:1035E00000001F8000001F8000001F8000001F805F
:1035F00000001F8000001F8000001F8000001F804F
:1036000000001F8000001F8000001F0000001CFF42
:10361000FF0011FFFFC007FFFFF003FFFFE000FF07
:10362000FF8C0000003C000000FC000000FC0000DB
:1036300000FC000000FC000000FC000000FC00009A
:1036400000FC000000FC000000FC000000FC00008A
:1036500000FC000000FC000000FC000000FC00007A
:103660000078007FFF3000FFFF8001FFFFC000FFF8
:10367000FF80007FFF00000000000000000000004D
:10368000000000000000007FFF0000FFFF8001FF3E
:10369000FFC000FFFF80067FFF000F0000001F80BB
:1036A00000001F8000001F8000001F8000001F809E
:1036B00000001F8000001F8000001F8000001F808E
:1036C00000001F8000001F8000001F8000001F807E
:1036D00000001F0000001CFFFF0011FFFFC007FFDC
:1036E000FFF013FFFFE01CFFFF8C1F00003C1F805A
:1036F00000FC1F8000FC1F8000FC1F8000FC1F805E
:1037000000FC1F8000FC1F8000FC1F8000FC1F804D
:1037100000FC1F8000FC1F8000FC1F8000FC1F803D
:1037200000FC1F8000FC0F000078067FFF3000FFC8
:10373000FF8001FFFFC000FFFF80007FFF0000004F
:103740000000000000000000000000000000007FFA
:10375000FF0000FFFF8001FFFFC000FFFFB0007F00
:10376000FF78000000FC000000FC000000FC0000EE
:1037700000FC000000FC000000FC000000FC000059
:1037800000FC000000FC000000FC000000FC000049
:1037900000FC000000FC000000FC0000003C0000F9
:1037A000000C000000040000000000000000000009
:1037B000000C0000003C000000FC000000FC0000C9
:1037C00000FC000000FC000000FC000000FC000009
:1037D00000FC000000FC000000FC000000FC0000F9
:1037E00000FC000000FC000000FC000000FC0000E9
:1037F0000078000000300000000000000000000021
:1038000000000000000000000000000000000000B8
:10381000000000000000007FFF0000FFFF8001FFAC
:10382000FFC000FFFFB0067FFF780F0000FC1F8085
:1038300000FC1F8000FC1F8000FC1F8000FC1F801C
:1038400000FC1F8000FC1F8000FC1F8000FC1F800C
:1038500000FC1F8000FC1F8000FC1F8000FC1F80FC
:1038600000FC1F00003C1CFFFF0C11FFFFC407FF02
:10387000FFF013FFFFE01CFFFF8C1F00003C1F80C8
:1038800000FC1F8000FC1F8000FC1F8000FC1F80CC
:1038900000FC1F8000FC1F8000FC1F8000FC1F80BC
:1038A00000FC1F8000FC1F8000FC1F8000FC1F80AC
:1038B00000FC1F8000FC0F000078067FFF3000FF37
:1038C000FF8001FFFFC000FFFF80007FFF000000BE
:1038D0000000000000000000000000000000007F69
:1038E000FF0000FFFF8001FFFFC000FFFFB0067F69
:1038F000FF780F0000FC1F8000FC1F8000FC1F8071
:1039000000FC1F8000FC1F8000FC1F8000FC1F804B
:1039100000FC1F8000FC1F8000FC1F8000FC1F803B
:1039200000FC1F8000FC1F8000FC1F00003C1CFFEF
:10393000FF0C11FFFFC407FFFFF003FFFFE000FFD4
:10394000FF8C0000003C000000FC000000FC0000B8
:1039500000FC000000FC000000FC000000FC000077
:1039600000FC000000FC000000FC000000FC000067
:1039700000FC000000FC000000FC000000FC000057
:103980000078007FFF3000FFFF8001FFFFC000FFD5
:10399000FF80007FFF00000000000000000000002A
:1039A0000000000000000000000000000000000017
:1039B0000000000000000000000000000000000007
:1039C00000000000000000000000000000000000F7
:1039D00070000000F8000001FC000001FC00000184
:1039E000FC000000F8000000700000000000000073
:1039F00000000000000000000000000000000000C7
:103A000000000000000000000000000000000000B6
:103A100000000000000000000000000000000000A6
:103A20000000000070000000F8000001FC00000130
:103A3000FC000001FC000000F80000007000000025
:103A40000000000000000000000000000000000076
:103A50000000000000000000000000000000000066
:103A60000000000000000000000000000000000056
:103A70000000000000000000000000000000000046
:103A80000000000000000000000000000000000036
:103A9000000000000000000070000000F8000001BD
:103AA000FC000001FC000001FC000000F800000028
:103AB0007000000000000000000000000000000096
:103AC00000000000000000000000000000000000F6
:103AD00000000000000000000000000000000000E6
:103AE0000000000000000000000000007000000066
:103AF000F8000001FC000001FC000001FC000000D7
:103B0000F80000007000000000000000000000004D
:103B100000000000000000000000000000000000A5
:103B20000000000000000000000000000000000095
:103B30000000000000000000000000000000000085
:103B4000000000000010000000380000007C0000B1
:103B500000FC000000FC000000FC000000FC000075
:103B600000FC000000FC000000FC000000FC000065
:103B700000FC000000FC000000FC000000FC000055
:103B800000FC0000003C007FFF0C01FFFFC407FFAA
:103B9000FFF001FFFFE0007FFF8C0000003C000011
:103BA00000FC000000FC000000FC000000FC000025
:103BB00000FC000000FC000000FC000000FC000015
:103BC00000FC000000FC000000FC000000FC000005
:103BD00000FC000000FC0000007800000030000045
:103BE00000000000000000000000000000000000D5
:103BF00000000000000000000000000000000000C5
:103C000000000000000000000000000000000000B4
:103C100000000000000000000000000000000000A4
:103C20000000000000000000000000000000000094
:103C3000000000FFFF0001FFFFC007FFFFF003FFD0
:103C4000FFE000FFFF800000000000000000000017
:103C50000000000000000000000000000000000064
:103C60000000000000000000000000FFFF0001FF56
:103C7000FFC007FFFFF003FFFFE000FFFF80000031
:103C80000000000000000000000000000000000034
:103C90000000000000000000000000000000000024
:103CA0000000000000000000000000000000000014
:103CB0000000000000000000000000000000000004
:103CC00000000000000000000000000000000000F4
:103CD000000000000000060000000F0000001F8030
:103CE00000001F8000001F8000001F8000001F8058
:103CF00000001F8000001F8000001F8000001F8048
:103D000000001F8000001F8000001F8000001F8037
:103D100000001F0000001CFFFF0011FFFFC007FF95
:103D2000FFF013FFFFE01CFFFF801F0000001F805B
:103D300000001F8000001F8000001F8000001F8007
:103D400000001F8000001F8000001F8000001F80F7
:103D500000001F8000001F8000001F8000001F80E7
:103D600000001F8000000F0000000600000000009F
:103D70000000000000000000000000000000000043
:103D80000000000000000000000000000000007FB4
:103D9000FF0000FFFF8001FFFFC000FFFFB0007FBA
:103DA000FF78000000FC000000FC000000FC0000A8
:103DB00000FC000000FC000000FC000000FC000013
:103DC00000FC000000FC000000FC000000FC000003
:103DD00000FC000000FC000000FC0000003C00FFB4
:103DE000FF0C01FFFFC407FFFFF013FFFFE01CFF04
:103DF000FF801F0000001F8000001F8000001F8048
:103E000000001F8000001F8000001F8000001F8036
:103E100000001F8000001F8000001F8000001F8026
:103E200000001F8000001F8000001F8000000F00A6
:103E3000000006000000000000000000000000007C
:103E40000000000000000000000000000000000072
:103E500000000000000000FFFE0001FFFF0003FF64
:103E6000FF8001FFFF600CFFFEF01E0001F83F0025
:103E700001F83F0001F83F0001F83F0001F83F0062
:103E800001F83F0001F83F0001F83F0001F83F0052
:103E900001F83F0001F83F0001F83F0001F83F0042
:103EA00001F83E00007839FFFE1823FFFF880FFF5E
:103EB000FFE027FFFFC039FFFF003E0000003F008A
:103EC00000003F0000003F0000003F0000003F00F6
:103ED00000003F0000003F0000003F0000003F00E6
:103EE00000003F0000003F0000003F0000003F00D6
:103EF00000003F0000001E0000000CFFFE0001FF5C
:103F0000FF0003FFFF8001FFFF0000FFFE00000035
:103F10000000000000000000000000000000007F22
:103F2000FF0000FFFF8001FFFFC000FFFFB0067F22
:103F3000FF780F0000FC1F8000FC1F8000FC1F802A
:103F400000FC1F8000FC1F8000FC1F8000FC1F8005
:103F500000FC1F8000FC1F8000FC1F8000FC1F80F5
:103F600000FC1F8000FC1F8000FC1F00003C1CFFA9
:103F7000FF0C11FFFFC407FFFFF013FFFFE01CFF62
:103F8000FF8C1F00003C1F8000FC1F8000FC1F8076
:103F900000FC1F8000FC1F8000FC1F8000FC1F80B5
:103FA00000FC1F8000FC1F8000FC1F8000FC1F80A5
:103FB00000FC1F8000FC1F8000FC1F8000FC0F0025
:103FC0000078060000300000000000000000000043
:103FD00000000000000000000000000000000000E1
:103FE000000000000000007FFF0000FFFF8001FFD5
:103FF000FFC000FFFFB0067FFF780F0000FC1F80AE
:1040000000FC1F8000FC1F8000FC1F8000FC1F8044
:1040100000FC1F8000FC1F8000FC1F8000FC1F8034
:1040200000FC1F8000FC1F8000FC1F8000FC1F8024
:1040300000FC1F00003C1CFFFF0C11FFFFC407FF2A
:10404000FFF013FFFFE01CFFFF8C1F00003C1F80F0
:1040500000FC1F8000FC1F8000FC1F8000FC1F80F4
:1040600000FC1F8000FC1F8000FC1F8000FC1F80E4
:1040700000FC1F8000FC1F8000FC1F8000FC1F80D4
:1040800000FC1F8000FC0F000078067FFF3000FF5F
:10409000FF8001FFFFC000FFFF80007FFF000000E6
:1040A0000000000000000000000000000000000010
:1040B0000000007FFF0000FFFF8001FFFFC000FF46
:1040C000FF80067FFF000F0000001F8000001F80A0
:1040D00000001F8000001F8000001F8000001F8064
:1040E00000001F8000001F8000001F8000001F8054
:1040F00000001F8000001F8000001F8000001F00C4
:1041000000001C0000001000000000000000100073
:1041100000001C0000001F0000001F8000001F8026
:1041200000001F8000001F8000001F8000001F8013
:1041300000001F8000001F8000001F8000001F8003
:1041400000001F8000001F8000001F8000001F80F3
:1041500000000F000000067FFF0000FFFF8001FF4E
:10416000FFC000FFFF80007FFF0000000000000094
:10417000000000000000000000000000000000003F
:1041800000000000003000000078000000FC00008B
:1041900000FC000000FC000000FC000000FC00002F
:1041A00000FC000000FC000000FC000000FC00001F
:1041B00000FC000000FC000000FC000000FC00000F
:1041C00000FC0000003C00FFFF0C01FFFFC407FFE4
:1041D000FFF013FFFFE01CFFFF8C1F00003C1F805F
:1041E00000FC1F8000FC1F8000FC1F8000FC1F8063
:1041F00000FC1F8000FC1F8000FC1F8000FC1F8053
:1042000000FC1F8000FC1F8000FC1F8000FC1F8042
:1042100000FC1F8000FC0F000078067FFF3000FFCD
:10422000FF8001FFFFC000FFFF80007FFF00000054
:104230000000000000000000000000000000007FFF
:10424000FF0000FFFF8001FFFFC000FFFF80067F2F
:10425000FF000F0000001F8000001F8000001F8073
:1042600000001F8000001F8000001F8000001F80D2
:1042700000001F8000001F8000001F8000001F80C2
:1042800000001F8000001F8000001F0000001CFFB6
:10429000FF0011FFFFC007FFFFF013FFFFE01CFF4F
:1042A000FF801F0000001F8000001F8000001F8093
:1042B00000001F8000001F8000001F8000001F8082
:1042C00000001F8000001F8000001F8000001F8072
:1042D00000001F8000001F8000001F8000000F00F2
:1042E0000000067FFF0000FFFF8001FFFFC000FF0E
:1042F000FF80007FFF0000000000000000000000C1
:10430000000000000000007FFF0000FFFF8001FFB1
:10431000FFC000FFFF80067FFF000F0000001F802E
:1043200000001F8000001F8000001F8000001F8011
:1043300000001F8000001F8000001F8000001F8001
:1043400000001F8000001F8000001F8000001F80F1
:1043500000001F0000001CFFFF0011FFFFC007FF4F
:10436000FFF013FFFFE01CFFFF801F0000001F8015
:1043700000001F8000001F8000001F8000001F80C1
:1043800000001F8000001F8000001F8000001F80B1
:1043900000001F8000001F8000001F8000001F80A1
:1043A00000001F8000000F00000006000000000059
:1043B00000000000000000000000000000000000FD
:1043C000000000000000007FFF0000FFFF8001FFF1
:1043D000FFC000FFFF80067FFF000F0000001F806E
:1043E00000001F8000001F8000001F8000001F8051
:1043F00000001F8000001F8000001F8000001F8041
:1044000000001F8000001F8000001F8000001F8030
:1044100000001F0000001C00000010000000000051
:104420000000100000001C00000C1F00003C1F805A
:1044300000FC1F8000FC1F8000FC1F8000FC1F8010
:1044400000FC1F8000FC1F8000FC1F8000FC1F8000
:1044500000FC1F8000FC1F8000FC1F8000FC1F80F0
:1044600000FC1F8000FC0F000078067FFF3000FF7B
:10447000FF8001FFFFC000FFFF80007FFF00000002
:10448000000000000000000000000000000000002C
:10449000000000000000000000000000000000001C
:1044A0000030060000780F0000FC1F8000FC1F8019
:1044B00000FC1F8000FC1F8000FC1F8000FC1F8090
:1044C00000FC1F8000FC1F8000FC1F8000FC1F8080
:1044D00000FC1F8000FC1F8000FC1F8000FC1F00F0
:1044E000003C1CFFFF0C11FFFFC407FFFFF013FF90
:1044F000FFE01CFFFF8C1F00003C1F8000FC1F80A2
:1045000000FC1F8000FC1F8000FC1F8000FC1F803F
:1045100000FC1F8000FC1F8000FC1F8000FC1F802F
:1045200000FC1F8000FC1F8000FC1F8000FC1F801F
:1045300000FC0F00007806000030000000000000C2
:10454000000000000000000000000000000000006B
:10455000000000000000000000000000000000005B
:1045600000000000000000000030000000780000A3
:1045700000FC000000FC000000FC000000FC00004B
:1045800000FC000000FC000000FC000000FC00003B
:1045900000FC000000FC000000FC000000FC00002B
:1045A00000FC000000FC0000003C0000000C0000CB
:1045B000000400000000000000000000000C0000EB
:1045C000003C000000FC000000FC000000FC0000BB
:1045D00000FC000000FC000000FC000000FC0000EB
:1045E00000FC000000FC000000FC000000FC0000DB
:1045F00000FC000000FC000000FC0000007800004F
:10460000003000000000000000000000000000007A
:10461000000000000000000000000000000000009A
:10462000000000000000000000000000000000008A
:1046300000000000003000000078000000FC0000D6
:1046400000FC000000FC000000FC000000FC00007A
:1046500000FC000000FC000000FC000000FC00006A
:1046600000FC000000FC000000FC000000FC00005A
:1046700000FC0000003C0000000C000000040000F2
:104680000000100000001C00000C1F00003C1F80F8
:1046900000FC1F8000FC1F8000FC1F8000FC1F80AE
:1046A00000FC1F8000FC1F8000FC1F8000FC1F809E
:1046B00000FC1F8000FC1F8000FC1F8000FC1F808E
:1046C00000FC1F8000FC0F000078067FFF3000FF19
:1046D000FF8001FFFFC000FFFF80007FFF000000A0
:1046E00000000000000000000000000000000000CA
:1046F00000000000000000000000000000600C004E
:1047000000F01E0001F83F0001F83F0001F83F00F3
:1047100001F83F0001F83F0001F83F0001F83F00B9
:1047200001F83F0001F83F0001F83F0001F83F00A9
:1047300001F83F0001F83F0001F83E00007839FF22
:10474000FE1823FFFF880FFFFFE027FFFFC039FFA0
:10475000FF183E0000783F0001F83F0001F83F00DD
:1047600001F83F0001F83F0001F83F0001F83F0069
:1047700001F83F0001F83F0001F83F0001F83F0059
:1047800001F83F0001F83F0001F83F0001F81E006A
:1047900000F00C00006000000000000000000000BD
:1047A0000000000000000000000000000000000009
:1047B00000000000000000000000000000000000F9
:1047C0000000000000000C0000001E0000003F0080
:1047D00000003F0000003F0000003F0000003F00DD
:1047E00000003F0000003F0000003F0000003F00CD
:1047F00000003F0000003F0000003F0000003F00BD
:1048000000003E0000003800000020000000000012
:10481000000020000000380000003E0000003F00C3
:1048200000003F0000003F0000003F0000003F008C
:1048300000003F0000003F0000003F0000003F007C
:1048400000003F0000003F0000003F0000003F006C
:1048500000003F0000001E0000000CFFFE0001FFF2
:10486000FF0003FFFF8001FFFF0000FFFE000000CC
:104870000000000000000000000000000000007FB9
:10488000FF0000FFFF8001FFFF8000FFFF00007FAF
:10489000FE0000000000000000000000000000001A
:1048A0000000000000000000000000000000000008
:1048B00000000000000000000000000000000000F8
:1048C0000000000000000000000000000000007F69
:1048D000FF0001FFFFC007FFFFF013FFFFE01CFF19
:1048E000FF8C1F00003C1F8000FC1F8000FC1F800D
:1048F00000FC1F8000FC1F8000FC1F8000FC1F804C
:1049000000FC1F8000FC1F8000FC1F8000FC1F803B
:1049100000FC1F8000FC1F8000FC1F8000FC0F00BB
:1049200000780600003000000000000000000000D9
:104930000000000000000000000000000000000077
:104940000000000000000000000000000000000067
:104950000000000000000000000000000000000057
:104960000000000000000000000000000000000047
:104970000000000000000000000000000000000037
:104980000000000000000000000000000000000027
:10499000000000000000007FFF0001FFFFC007FFD4
:1049A000FFF013FFFFE01CFFFF8C1F00003C1F8087
:1049B00000FC1F8000FC1F8000FC1F8000FC1F808B
:1049C00000FC1F8000FC1F8000FC1F8000FC1F807B
:1049D00000FC1F8000FC1F8000FC1F8000FC1F806B
:1049E00000FC1F8000FC0F00007806000030000073
:1049F00000000000000000000000000000000000B7
:104A00000000000000000000000000FFFE0001FFA9
:104A1000FF0003FFFF8001FFFF600CFFFEF01E00A0
:104A200001F83F0001F83F0001F83F0001F83F00A6
:104A300001F83F0001F83F0001F83F0001F83F0096
:104A400001F83F0001F83F0001F83F0001F83F0086
:104A500001F83F0001F83E000078380000182000FF
:104A600000080000000020000000380000183E0090
:104A700000783F0001F83F0001F83F0001F83F00D7
:104A800001F83F0001F83F0001F83F0001F83F0046
:104A900001F83F0001F83F0001F83F0001F83F0036
:104AA00001F83F0001F83F0001F81E0000F00CFF84
:104AB000FE6001FFFF0003FFFF8001FFFF0000FF1A
:104AC000FE000000000000000000000000000000E8
:104AD00000000000000000FFFE0001FFFF0003FFD8
:104AE000FF8001FFFF600CFFFEF01E0001F83F0099
:104AF00001F83F0001F83F0001F83F0001F83F00D6
:104B000001F83F0001F83F0001F83F0001F83F00C5
:104B100001F83F0001F83F0001F83F0001F83F00B5
:104B200001F83E00007839FFFE1823FFFF880FFFD1
:104B3000FFE027FFFFC039FFFF003E0000003F00FD
:104B400000003F0000003F0000003F0000003F0069
:104B500000003F0000003F0000003F0000003F0059
:104B600000003F0000003F0000003F0000003F0049
:104B700000003F0000001E0000000C0000000000CC
:104B80000000000000000000000000000000000025
:104B90000000000000000000000000000000007F96
:104BA000FF0000FFFF8001FFFFC000FFFFB0067F96
:104BB000FF780F0000FC1F8000FC1F8000FC1F809E
:104BC00000FC1F8000FC1F8000FC1F8000FC1F8079
:104BD00000FC1F8000FC1F8000FC1F8000FC1F8069
:104BE00000FC1F8000FC1F8000FC1F00003C1CFF1D
:104BF000FF0C11FFFFC407FFFFF003FFFFE000FF02
:104C0000FF8C0000003C000000FC000000FC0000E5
:104C100000FC000000FC000000FC000000FC0000A4
:104C200000FC000000FC000000FC000000FC000094
:104C300000FC000000FC000000FC000000FC000084
:104C400000780000003000000000000000000000BC
:104C50000000000000000000000000000000000054
:104C60000000000000000000000000000000000044
:104C70000000000000000000000000000000000034
:104C80000000000000000000000000000000000024
:104C90000000000000000000000000000000000014
:104CA0000000000000000000000000000000000004
:104CB0000000000000000000000000FFFF0001FFF6
:104CC000FFC007FFFFF013FFFFE01CFFFF801F0086
:104CD00000001F8000001F8000001F8000001F8058
:104CE00000001F8000001F8000001F8000001F8048
:104CF00000001F8000001F8000001F8000001F8038
:104D000000001F8000001F8000000F000000060050
:104D10000000000000000000000000000000000093
:104D2000000000000000000000000000000000FF84
:104D3000FE0001FFFF0003FFFF8001FFFF000CFFEB
:104D4000FE001E0000003F0000003F0000003F008A
:104D500000003F0000003F0000003F0000003F0057
:104D600000003F0000003F0000003F0000003F0047
:104D700000003F0000003F0000003E00000039FF3F
:104D8000FE0023FFFF800FFFFFE007FFFFC001FFD2
:104D9000FF1800000078000001F8000001F8000092
:104DA00001F8000001F8000001F8000001F800001F
:104DB00001F8000001F8000001F8000001F800000F
:104DC00001F8000001F8000001F8000001F80000FF
:104DD00000F000FFFE6001FFFF0003FFFF8001FF06
:104DE000FF0000FFFE0000000000000000000000C7
:104DF00000000000000000000000007FFF0000FF36
:104E0000FF8001FFFFC000FFFFB0007FFF780000C0
:104E100000FC000000FC000000FC000000FC0000A2
:104E200000FC000000FC000000FC000000FC000092
:104E300000FC000000FC000000FC000000FC000082
:104E400000FC000000FC0000003C0000000C000022
:104E5000000400000000000000000000000C000042
:104E6000003C000000FC000000FC000000FC000012
:104E700000FC000000FC000000FC000000FC000042
:104E800000FC000000FC000000FC000000FC000032
:104E900000FC000000FC000000FC000000780000A6
:104EA00000300000000000000000000000000000D2
:104EB00000000000000000000000000000000000F2
:104EC00000000000000000000000000000600C0076
:104ED00000F01E0001F83F0001F83F0001F83F001C
:104EE00001F83F0001F83F0001F83F0001F83F00E2
:104EF00001F83F0001F83F0001F83F0001F83F00D2
:104F000001F83F0001F83F0001F83E00007838004A
:104F100000182000000800000000200000003800F9
:104F200000183E0000783F0001F83F0001F83F0004
:104F300001F83F0001F83F0001F83F0001F83F0091
:104F400001F83F0001F83F0001F83F0001F83F0081
:104F500001F83F0001F83F0001F83F0001F81E0092
:104F600000F00CFFFE6001FFFF0003FFFF8001FF68
:104F7000FF0000FFFE000000000000000000000035
:104F80000000000000000000000000000000000021
:104F90000000000000000000000000000000000011
:104FA0000000000000000000000000000000000001
:104FB00000000000000000000000000000000000F1
:104FC00000000000000000000000000000000000E1
:104FD00000000000000000000000000000000000D1
:104FE0000000100000001C00000C1F00003C1F808F
:104FF00000FC1F8000FC1F8000FC1F8000FC1F8045
:1050000000FC1F8000FC1F8000FC1F8000FC1F8034
:1050100000FC1F8000FC1F8000FC1F8000FC1F8024
:1050200000FC1F8000FC0F000078067FFF3000FFAF
:10503000FF8001FFFFC000FFFF80007FFF00000036
:105040000000000000000000000000000000000060
:1050500000000000000000000000000000600C00E4
:1050600000F01E0001F83F0001F83F0001F83F008A
:1050700001F83F0001F83F0001F83F0001F83F0050
:1050800001F83F0001F83F0001F83F0001F83F0040
:1050900001F83F0001F83F0001F83E0000783800B9
:1050A0000018200000080000000020000000380068
:1050B00000183E0000783F0001F83F0001F83F0073
:1050C00001F83F0001F83F0001F83F0001F83F0000
:1050D00001F83F0001F83F0001F83F0001F83F00F0
:1050E00001F83F0001F83F0001F83F0001F81E0001
:1050F00000F00CFFFE6001FFFF0003FFFF8001FFD7
:10510000FF0000FFFE0000000000000000000000A3
:10511000000000000000000000000000000000008F
:10512000000000000000000000600C0000F01E0005
:1051300001F83F0001F83F0001F83F0001F83F008F
:1051400001F83F0001F83F0001F83F0001F83F007F
:1051500001F83F0001F83F0001F83F0001F83F006F
:1051600001F83F0001F83E00007839FFFE1823FFE8
:10517000FF880FFFFFE027FFFFC039FFFF183E0049
:1051800000783F0001F83F0001F83F0001F83F00C0
:1051900001F83F0001F83F0001F83F0001F83F002F
:1051A00001F83F0001F83F0001F83F0001F83F001F
:1051B00001F83F0001F83F0001F81E0000F00C006C
:1051C000006000000000000000000000000000007F
:1051D00000000000000000000000000000000000CF
:1051E0000000000000000000000000000030060089
:1051F00000780F0000FC1F8000FC1F8000FC1F8057
:1052000000FC1F8000FC1F8000FC1F8000FC1F8032
:1052100000FC1F8000FC1F8000FC1F8000FC1F8022
:1052200000FC1F8000FC1F8000FC1F00003C1CFFD6
:10523000FF0C11FFFFC407FFFFF003FFFFE000FFBB
:10524000FF8C0000003C000000FC000000FC00009F
:1052500000FC000000FC000000FC000000FC00005E
:1052600000FC000000FC000000FC000000FC00004E
:1052700000FC000000FC000000FC000000FC00003E
:105280000078007FFF3000FFFF8001FFFFC000FFBC
:10529000FF80007FFF000000000000000000000011
:1052A000000000000000007FFF0000FFFF8001FF02
:1052B000FFC000FFFFB0007FFF78000000FC00008F
:1052C00000FC000000FC000000FC000000FC0000EE
:1052D00000FC000000FC000000FC000000FC0000DE
:1052E00000FC000000FC000000FC000000FC0000CE
:1052F00000FC0000003C00FFFF0C01FFFFC407FFA3
:10530000FFF013FFFFE01CFFFF801F0000001F8065
:1053100000001F8000001F8000001F8000001F8011
:1053200000001F8000001F8000001F8000001F8001
:1053300000001F8000001F8000001F8000001F80F1
:1053400000001F8000000F000000067FFF0000FF2C
:10535000FF8001FFFFC000FFFF80007FFF00000013
:10536000000000000000000000000000000000FF3E
:10537000FE0001FFFF0003FFFF0001FFFE000CFF26
:10538000FC001E0000003F0000003F0000003F0046
:1053900000003F0000003F0000003F0000003F0011
:1053A00000003F0000003F0000003F0000003F0001
:1053B00000003F0000003F0000003C0000003800FB
:1053C000000020000000000000002000000030006D
:1053D00000003C0000003F0000003F0000003F00D4
:1053E00000003F0000003F0000003F0000003F00C1
:1053F00000003F0000003F0000003F0000003F00B1
:1054000000003F0000003F0000003F0000001E00C1
:1054100000000CFFFE0001FFFF0003FFFF8001FF03
:10542000FF0000FFFE000000000000000000000080
:10543000000000000000000000000000000000006C
:10544000000000000000060000000F0000001F80A8
:1054500000001F8000001F8000001F8000001F80D0
:1054600000001F8000001F8000001F8000001F80C0
:1054700000001F8000001F8000001F8000001F80B0
:1054800000001F0000001CFFFF0011FFFFC007FF0E
:10549000FFF001FFFFE0007FFF8C0000003C0000F8
:1054A00000FC000000FC000000FC000000FC00000C
:1054B00000FC000000FC000000FC000000FC0000FC
:1054C00000FC000000FC000000FC000000FC0000EC
:1054D00000FC000000FC000000780000003000002C
:1054E00000000000000000000000000000000000BC
:1054F0000000000000000000000000000000007F2D
:10550000FF0000FFFF8001FFFFC000FFFFB0007F32
:10551000FF78000000FC000000FC000000FC000020
:1055200000FC000000FC000000FC000000FC00008B
:1055300000FC000000FC000000FC000000FC00007B
:1055400000FC000000FC000000FC0000003C00002B
:10555000000C00000004000000000000000000003B
:10556000000C0000003C000000FC000000FC0000FB
:1055700000FC000000FC000000FC000000FC00003B
:1055800000FC000000FC000000FC000000FC00002B
:1055900000FC000000FC000000FC000000FC00001B
:1055A0000078007FFF3000FFFF8001FFFFC000FF99
:1055B000FF80007FFF0000000000000000000000EE
:1055C000000000000000007FFF0000FFFF8001FFDF
:1055D000FF8000FFFF00007FFE00000000000000D1
:1055E00000000000000000000000000000000000BB
:1055F00000000000000000000000000000000000AB
:10560000000000000000000000000000000000009A
:10561000000000000000000000000000000000008A
:10562000000000000000000000000000000000007A
:10563000000000000000000000000000000000006A
:10564000000000000000000000000000000000005A
:10565000000000000000000000000000000000004A
:10566000000000000000000000000000000000003A
:10567000000000000000000000000000000000002A
:10568000000000000000000000000000000000001A
:10569000000000000000000000000000000000000A
:1056A00000000000000000000000000000000000FA
:1056B00000000000000000000000000000000000EA
:1056C00000000000000000000000000000000000DA
:1056D00000000000000000000000000000000000CA
:1056E00000000000000000000000000000000000BA
:1056F00000000000000000000000000000000000AA
:105700000000000000000000000000000000000099
:105710000000000000000000000000000000000089
:105720000000000000000000000000000000000079
:105730000000007FFF0000FFFF8001FFFFC000FFAF
:10574000FF80007FFF00000000000000000000FF5D
:10575000FE0001FFFF0003FFFF0001FFFE0000FF4E
:10576000FC0000000000000000000000000000003D
:105770000000000000000000000000000000000029
:105780000000000000000000000000000000000019
:105790000000000000000000000000000000000009
:1057A00000000000000000000000000000000000F9
:1057B00000000000000000000000000000000000E9
:1057C00000000000000000000000000000000000D9
:1057D00000000000000000000000000000000000C9
:1057E00000000000000000000000000000000000B9
:1057F00000000000000000000000000000000000A9
:105800000000000000000000000000000000000098
:10581000000000000000007FFF0000FFFF8001FF8C
:10582000FFC000FFFFB0007FFF78000000FC000019
:1058300000FC000000FC000000FC000000FC000078
:1058400000FC000000FC000000FC000000FC000068
:1058500000FC000000FC000000FC000000FC000058
:1058600000FC0000003C007FFF0C01FFFFC407FFAD
:10587000FFF013FFFFE01CFFFF8C1F00003C1F80A8
:1058800000FC1F8000FC1F8000FC1F8000FC1F80AC
:1058900000FC1F8000FC1F8000FC1F8000FC1F809C
:1058A00000FC1F8000FC1F8000FC1F8000FC1F808C
:1058B00000FC1F8000FC0F000078067FFF3000FF17
:1058C000FF8001FFFFC000FFFF80007FFF0000009E
:1058D00000000000000000000000000000000000C8
:1058E00000000000000000000000000000000000B8
:1058F000000000000000060000000F0000001F80F4
:1059000000001F8000001F8000001F8000001F801B
:1059100000001F8000001F8000001F8000001F800B
:1059200000001F8000001F8000001F8000001F80FB
:1059300000001F0000001CFFFF0011FFFFC007FF59
:10594000FFF013FFFFE01CFFFF8C1F00003C1F80D7
:1059500000FC1F8000FC1F8000FC1F8000FC1F80DB
:1059600000FC1F8000FC1F8000FC1F8000FC1F80CB
:1059700000FC1F8000FC1F8000FC1F8000FC1F80BB
:1059800000FC1F8000FC0F000078067FFF3000FF46
:10599000FF8001FFFFC000FFFF80007FFF000000CD
:1059A00000000000000000000000000000000000F7
:1059B00000000000000000000000000000000000E7
:1059C00000000000000000000000000000000000D7
:1059D00000000000000000000000000000000000C7
:1059E00000000000000000000000000000000000B7
:1059F000000000000000000000000000000000FFA8
:105A0000FF0001FFFFC007FFFFF013FFFFE01CFFD7
:105A1000FF801F0000001F8000001F8000001F800B
:105A200000001F8000001F8000001F8000001F80FA
:105A300000001F8000001F8000001F8000001F80EA
:105A400000001F8000001F8000001F8000000F006A
:105A50000000067FFF0000FFFF8001FFFFC000FF86
:105A6000FF80007FFF000000000000000000000039
:105A70000000000000000000000000000000000026
:105A8000003000000078000000FC000000FC000076
:105A900000FC000000FC000000FC000000FC000016
:105AA00000FC000000FC000000FC000000FC000006
:105AB00000FC000000FC000000FC000000FC0000F6
:105AC000003C00FFFF0C01FFFFC407FFFFF013FFC6
:105AD000FFE01CFFFF8C1F00003C1F8000FC1F80AC
